:020000040800F2
:1000000000000A20015400087952000881520008BB
:100010008952000891520008995200085D54000866
:10002000000000000000000000000000A1520008D5
:10003000AF52000800000000BD520008CB5200087B
:100040005D5400085D5400085D5400085D540008CC
:100050005D5400085D5400085D5400085D540008BC
:100060005D5400085D5400085D5400085D540008AC
:100070005D5400085D5400085D5400085D5400089C
:100080005D5400085D5400085D5400085D5400088C
:100090005D5400085D5400085D5400085D5400087C
:1000A0005D5400085D5400085D5400085D5400086C
:1000B0005D5400085D5400085D5400085D5400085C
:1000C0005D5400085D5400085D5400085D5400084C
:1000D000000000005D5400085D5400085D540008F5
:1000E0005D5400085D5400085D5400085D5400082C
:1000F0005D5400085D5400085D5400085D5400081C
:100100005D5400085D5400085D5400085D5400080B
:100110005D5400085D5400085D5400085D540008FB
:100120005D5400085D540008D9520008ED520008E3
:100130005D5400085D5400085D5400085D540008DB
:100140005D5400085D5400085D5400085D540008CB
:100150005D5400085D5400085D5400085D540008BB
:100160005D5400085D5400085D5400085D540008AB
:100170005D5400085D5400085D5400085D5400089B
:100180005D5400085D5400085D5400085D5400088B
:100190005D5400085D5400085D5400085D5400087B
:1001A0005D5400085D5400085D5400085D5400086B
:1001B0005D5400085D5400085D5400085D5400085B
:1001C0005D5400085D5400085D5400085D5400084B
:1001D0005D5400085D5400085D5400085D5400083B
:1001E0005D5400085D5400085D5400085D5400082B
:1001F0005D5400085D5400085D5400085D5400081B
:100200005D5400085D5400085D54000800000000C3
:10021000000000005D540008000000005D5400086C
:100220005D5400085D5400085D5400085D540008EA
:100230005D5400085D5400085D5400085D540008DA
:0C0240005D5400085D5400085D54000887
:10024C0010B5054C237833B9044B13B10448AFF304
:10025C0000800123237010BD60000020000000000E
:10026C00481D010808B5034B1BB103490348AFF304
:10027C00008008BD0000000064000020481D01083B
:10028C0081F0004102E000BF83F0004330B54FEA3B
:10029C0041044FEA430594EA050F08BF90EA020FA8
:1002AC001FBF54EA000C55EA020C7FEA645C7FEA3B
:1002BC00655C00F0E2804FEA5454D4EB5555B8BF5E
:1002CC006D420CDD2C4480EA020281EA030382EACF
:1002DC00000083EA010180EA020281EA0303362D61
:1002EC0088BF30BD11F0004F4FEA01314FF4801C34
:1002FC004CEA113102D0404261EB410113F0004F46
:10030C004FEA03334CEA133302D0524263EB4303FC
:10031C0094EA050F00F0A780A4F10104D5F1200E9A
:10032C000DDB02FA0EFC22FA05F2801841F10001F5
:10033C0003FA0EF2801843FA05F359410EE0A5F1C9
:10034C0020050EF1200E012A03FA0EFC28BF4CF0FA
:10035C00020C43FA05F3C01851EBE37101F00045B0
:10036C0007D54FF0000EDCF1000C7EEB00006EEBBD
:10037C000101B1F5801F1BD3B1F5001F0CD3490847
:10038C005FEA30004FEA3C0C04F101044FEA44529E
:10039C0012F5800F80F09A80BCF1004F08BF5FEA25
:1003AC00500C50F1000041EB045141EA050130BD05
:1003BC005FEA4C0C404141EB0101013C28BFB1F517
:1003CC00801FE9D291F0000F04BF01460020B1FA62
:1003DC0081F308BF2033A3F10B03B3F120020CDA35
:1003EC000C3208DD02F1140CC2F10C0201FA0CF013
:1003FC0021FA02F10CE002F11402D8BFC2F1200C78
:10040C0001FA02F120FA0CFCDCBF41EA0C0190402D
:10041C00E41AA2BF01EB0451294330BD6FEA040476
:10042C001F3C1CDA0C340EDC04F11404C4F1200261
:10043C0020FA04F001FA02F340EA030021FA04F373
:10044C0045EA030130BDC4F10C04C4F1200220FACA
:10045C0002F001FA04F340EA0300294630BD21FA08
:10046C0004F0294630BD94F0000F83F4801306BFCE
:10047C0081F480110134013D4EE77FEA645C18BFC2
:10048C007FEA655C29D094EA050F08BF90EA020F59
:10049C0005D054EA000C04BF1946104630BD91EA51
:1004AC00030F1EBF0021002030BD5FEA545C05D154
:1004BC004000494128BF41F0004130BD14F5800493
:1004CC003CBF01F5801130BD01F0004545F0FE4107
:1004DC0041F470014FF0000030BD7FEA645C1ABF3C
:1004EC00194610467FEA655C1CBF0B46024650EA73
:1004FC00013406BF52EA033591EA030F41F400219F
:10050C0030BD00BF90F0000F04BF0021704730B524
:10051C004FF4806404F132044FF000054FF00001F9
:10052C0050E700BF90F0000F04BF0021704730B5BA
:10053C004FF4806404F1320410F0004548BF40428F
:10054C004FF000013EE700BF42004FEAE2014FEAE4
:10055C0031014FEA02701FBF12F07F4393F07F4FBF
:10056C0081F06051704732F07F4208BF704793F0C2
:10057C007F4F04BF41F40021704730B54FF46074D5
:10058C0001F0004521F000411CE700BF50EA0102D8
:10059C0008BF704730B54FF000050AE050EA010281
:1005AC0008BF704730B511F0004502D5404261EBF1
:1005BC0041014FF4806404F132045FEA915C3FF432
:1005CC00D8AE4FF003025FEADC0C18BF03325FEACF
:1005DC00DC0C18BF033202EBDC02C2F1200300FA80
:1005EC0003FC20FA02F001FA03FE40EA0E0021FAA5
:1005FC0002F11444BDE600BF70B54FF0FF0C4CF493
:10060C00E06C1CEA11541DBF1CEA135594EA0C0F44
:10061C0095EA0C0F00F0DEF82C4481EA030621EA7F
:10062C004C5123EA4C5350EA013518BF52EA0335BA
:10063C0041F4801143F4801338D0A0FB02CE4FF06C
:10064C000005E1FB02E506F00042E0FB03E54FF09C
:10065C000006E1FB03569CF0000F18BF4EF0010E94
:10066C00A4F1FF04B6F5007F64F5407404D25FEA90
:10067C004E0E6D4146EB060642EAC62141EA555143
:10068C004FEAC52040EA5E504FEACE2EB4F1FD0C85
:10069C0088BFBCF5E06F1ED8BEF1004F08BF5FEA03
:1006AC00500E50F1000041EB045170BD06F00046B5
:1006BC0046EA010140EA020081EA0301B4EB5C0462
:1006CC00C2BFD4EB0C0541EA045170BD41F480115A
:1006DC004FF0000E013C00F3AB8014F1360FDEBF7F
:1006EC00002001F0004170BDC4F10004203C35DA5B
:1006FC000C341BDC04F11404C4F1200500FA05F3DE
:10070C0020FA04F001FA05F240EA020001F000427E
:10071C0021F0004110EBD37021FA04F642EB0601F4
:10072C005EEA430E08BF20EAD37070BDC4F10C041E
:10073C00C4F1200500FA04F320FA05F001FA04F2E2
:10074C0040EA020001F0004110EBD37041F10001CE
:10075C005EEA430E08BF20EAD37070BDC4F12005D9
:10076C0000FA05F24EEA020E20FA04F301FA05F241
:10077C0043EA020321FA04F001F0004121FA04F2E9
:10078C0020EA020000EBD3705EEA430E08BF20EAB9
:10079C00D37070BD94F0000F0FD101F000464000F3
:1007AC0041EB010111F4801F08BF013CF7D041EA75
:1007BC00060195F0000F18BF704703F00046520079
:1007CC0043EB030313F4801F08BF013DF7D043EA4A
:1007DC000603704794EA0C0F0CEA135518BF95EA00
:1007EC000C0F0CD050EA410618BF52EA4306D1D187
:1007FC0081EA030101F000414FF0000070BD50EAA6
:10080C00410606BF1046194652EA430619D094EA2F
:10081C000C0F02D150EA013613D195EA0C0F05D119
:10082C0052EA03361CBF104619460AD181EA03016D
:10083C0001F0004141F0FE4141F470014FF0000025
:10084C0070BD41F0FE4141F4780170BD70B54FF0C0
:10085C00FF0C4CF4E06C1CEA11541DBF1CEA135540
:10086C0094EA0C0F95EA0C0F00F0A7F8A4EB050422
:10087C0081EA030E52EA03354FEA013100F0888019
:10088C004FEA03334FF0805545EA131343EA1263E2
:10089C004FEA022245EA111545EA10654FEA002697
:1008AC000EF000419D4208BF964244F1FD0404F550
:1008BC00407402D25B084FEA3202B61A65EB0305AC
:1008CC005B084FEA32024FF480104FF4002CB6EB69
:1008DC00020E75EB030E22BFB61A754640EA0C00E9
:1008EC005B084FEA3202B6EB020E75EB030E22BF29
:1008FC00B61A754640EA5C005B084FEA3202B6EB6A
:10090C00020E75EB030E22BFB61A754640EA9C0028
:10091C005B084FEA3202B6EB020E75EB030E22BFF8
:10092C00B61A754640EADC0055EA060E18D04FEAB6
:10093C00051545EA16754FEA06164FEAC30343EA56
:10094C0052734FEAC2025FEA1C1CC0D111F4801F23
:10095C000BD141EA00014FF000004FF0004CB6E71C
:10096C0011F4801F04BF01430020B4F1FD0C88BFBB
:10097C00BCF5E06F3FF6AFAEB5EB030C04BFB6EBC6
:10098C00020C5FEA500C50F1000041EB045170BDB9
:10099C000EF0004E4EEA113114EB5C04C2BFD4EBE6
:1009AC000C0541EA045170BD41F480114FF0000E6A
:1009BC00013C90E645EA060E8DE60CEA135594EAE6
:1009CC000C0F08BF95EA0C0F3FF43BAF94EA0C0FE9
:1009DC000AD150EA01347FF434AF95EA0C0F7FF45E
:1009EC0025AF104619462CE795EA0C0F06D152EAB2
:1009FC0003353FF4FDAE1046194622E750EA410696
:100A0C0018BF52EA43067FF4C5AE50EA41047FF4A6
:100A1C000DAF52EA43057FF4EBAE12E74FEA410209
:100A2C00B2F1E04324BFB3F5001CDCF1FE5C0DD940
:100A3C0001F0004C4FEAC0024CEA5070B2F1004F8A
:100A4C0040EB830008BF20F00100704711F0804F8D
:100A5C0021D113F13872BCBF01F00040704741F452
:100A6C0080114FEA5252C2F11802C2F1200C10FA56
:100A7C000CF320FA02F018BF40F001004FEAC1233A
:100A8C004FEAD32303FA0CFC40EA0C0023FA02F3DE
:100A9C004FEA4303CCE77FEA625307D150EA0133B4
:100AAC001EBF4FF0FE4040F44000704701F0004084
:100ABC0040F0FE4040F40000704700BF53B94AB903
:100ACC00002908BF00281CBF4FF0FF314FF0FF304A
:100ADC0000F0B0B9ADF1080C6DE904CE00F006F8E9
:100AEC00DDF804E0DDE9022304B070472DE9F04F96
:100AFC00099D884604468E46002B4AD18A421746E9
:100B0C005FD9B2FA82F64EB1C6F1200301FA06FEA5
:100B1C00B740B44020FA03F343EA0E0E4FEA1748ED
:100B2C001FFA87FC230CBEFBF8F108FB11EE01FB4E
:100B3C000CF243EA0E439A4207D9FB1801F1FF303D
:100B4C0002D29A4200F2548101469B1AA2B2B3FB24
:100B5C00F8F008FB103300FB0CFC42EA034294450E
:100B6C000BD9BA1800F1FF332CBF01240024944593
:100B7C0002D9002C00F03F81184640EA0140A2EB5C
:100B8C000C0200211DB1F2400023C5E90023BDE891
:100B9C00F08F8B4205D90DB1C5E900010021084643
:100BAC00F5E7B3FA83F100294ED14345C0F0128129
:100BBC00824240F20F810846002DE8D0C5E9004E74
:100BCC00E5E7002A00F0AC80B2FA82F6002E40F085
:100BDC00BB808B1A4FEA124EBCB20121020C80B2C0
:100BEC00B3FBFEFC0EFB1C3342EA034304FB0CF28A
:100BFC009A420ED9FB180CF1FF382CBF4FF00109AB
:100C0C004FF000099A4203D9B9F1000F00F0EC80C3
:100C1C00C4469B1AB3FBFEF80EFB183304FB08F416
:100C2C0040EA034294420BD9BA1808F1FF332CBFA7
:100C3C0001200020944202D9002800F0D18098466F
:100C4C00121B48EA0C409DE7C1F120068B4008FAC4
:100C5C0001F400FA01F922FA06F728FA06F88A409C
:100C6C001F4320FA06F3380C23431FFA87FC1C0C95
:100C7C00B8FBF0FE00FB1E8844EA08440EFB0CF89F
:100C8C00A0450ED93C190EF1FF3A2CBF4FF0010BC9
:100C9C004FF0000BA04503D9BBF1000F00F0B8805A
:100CAC00D646A4EB08041FFA83F8B4FBF0F300FB60
:100CBC00134403FB0CFC48EA0444A4450ED93C192C
:100CCC0003F1FF302CBF4FF001084FF00008A44592
:100CDC0003D9B8F1000F00F09F80034643EA0E40A1
:100CEC00A4EB0C04A0FB02EC64457346E04602D373
:100CFC0007D1F14505D2BEEB02036CEB070C0138B2
:100D0C00E0465DB1B9EB030264EB080404FA06F6A5
:100D1C0022FA01F3CC401E43C5E90064002136E7FA
:100D2C00B1FBF2FC010C144680B2964641EA084134
:100D3C002026904640EA01431046B1FBF2F1A3EBAA
:100D4C00080341EA0C414BE7B740C6F1200301FA16
:100D5C0006F221FA03F84FEA174E20FA03F3BCB25D
:100D6C00B0401343020C190C80B2B8FBFEF90EFB19
:100D7C00198841EA084109FB04F8884551D97918CA
:100D8C0009F1FF3C2CBF4FF0010A4FF0000A8845D7
:100D9C0002D9BAF1000F31D0A1EB0801B1FBFEF979
:100DAC0009FB04F80EFB19119BB243EA01434345BE
:100DBC0035D2FB1809F1FF312CBF4FF0010A4FF06F
:100DCC00000A4345BBD2BAF1000FB8D1A9F1020118
:100DDC003B44B4E7841A68EB030201209646EBE629
:100DEC003A44A8F102082BE7ACF1020C3B4410E7A3
:100DFC0002393B44A9E63A440238BEE6A7EB0808A0
:100E0C00A9F1020C4144B1FBFEF909FB04F8C9E756
:100E1C00AEF1020E3C4444E7023B3C445EE74946DB
:100E2C008DE7A1EB0801CC46B1FBFEF909FB04F8F8
:100E3C00B8E700BF704700BF80B584B000AF7860E2
:100E4C000023BB737968012000F0FEF90346FB73A5
:100E5C0097F90F30002B1FD17B685B697A68526859
:100E6C00114640F6B830984707F10E017B68012215
:100E7C00402000F043F80346FB7397F90F30002B2A
:100E8C000AD1BB7B322B07D1BA7B7B681A7078688E
:100E9C0000F014FA0346FB7397F90F30184610371D
:100EAC00BD4680BD90B587B000AFB9607A603B603D
:100EBC000346FB73386800F0A3F90346FB7597F9FA
:100ECC001730002B12D1BB68002B0FD07B68002B86
:100EDC000CD03B681C693B685B68F87B7A68B96826
:100EEC00A04703461A463B681A7201E0FF23FB75C4
:100EFC0097F9173018461C37BD4690BD90B587B092
:100F0C0000AFB9607A603B600346FB73386800F051
:100F1C0077F90346FB7597F91730002B17D1BB688F
:100F2C00002B14D03B685B78012B03D0FB7B63F068
:100F3C007F03FB733B68DC683B685B68F87B7A6813
:100F4C00B968A04703461A463B681A7201E0FF23B2
:100F5C00FB7597F9173018461C37BD4690BD00003D
:100F6C0080B584B000AF78603960386800F048F91B
:100F7C000346FB7397F90F30002B55D17B685B78D8
:100F8C00BB73BB7B042B47D801A252F823F000BFE4
:100F9C00B10F0008D30F000825100008F50F00084A
:100FAC0017100008386800F049FA0346FB7397F9EC
:100FBC000F30002B33D1BB7B3968184600F00CFA8C
:100FCC000346FB732BE0386800F038FA0346FB73DA
:100FDC0097F90F30002B24D1BB7B3968184600F0F1
:100FEC00FBF90346FB731CE0386800F027FA034654
:100FFC00FB7397F90F30002B15D1BB7B3968184662
:10100C0000F0EAF90346FB730DE03968002000F0AC
:10101C001BF90346FB7307E0FD23FB7304E000BFE1
:10102C0002E000BF00E000BF97F90F301846103700
:10103C00BD4680BD80B584B000AF7860396038683B
:10104C0000F0DEF80346FB7397F90F30002B54D1F8
:10105C007B685B79BB73BB7B013B032B4AD801A23A
:10106C0052F823F081100008A1100008C1100008EC
:10107C00E11000087B6800229A707B680122DA700C
:10108C007B6801221A713968786800F05DFA0346B2
:10109C00FB7332E07B6800229A707B680422DA7062
:1010AC007B6807221A713968786800F04DFA03469C
:1010BC00FB7322E07B6805229A707B681722DA703A
:1010CC007B6829221A713968786800F03DFA03466A
:1010DC00FB7312E07B6800229A707B680722DA703F
:1010EC007B680D221A713968786800F02DFA034676
:1010FC00FB7302E0FD23FB7300BF97F90F3018461A
:10110C001037BD4680BD00BF80B588B000AF786099
:10111C00396007F1140300221A605A6007F11401B8
:10112C003B6808224220FFF7E9FE0346FB7797F95C
:10113C001F30002B5ED13B7DDB08DBB23B757B7D2A
:10114C005BB29BB25B019BB2BB833B7D1AB2BB8B88
:10115C0013431BB2BB81BB7DDB08DBB2BB75FB7DD4
:10116C005BB29BB25B019BB2BB83BB7D1AB2BB8BE8
:10117C0013431BB2FB813B7E5B08DBB23B767B7E71
:10118C005BB29BB2DB019BB2BB833B7E1AB2BB8BC7
:10119C0013431BB23B82BB7E9B08DBB2BB76FB7E50
:1011AC001BB29B011AB2BB7E1BB213431BB29BB288
:1011BC007B82B7F90C30798A3A68184600F0E9F965
:1011CC0003461A467B681A80B7F90E30798A3A685A
:1011DC00184600F070FA03461A467B685A80B7F935
:1011EC001030798A3A68184600F0F6FA03461A4627
:1011FC007B689A8097F91F3018462037BD4680BD12
:10120C0080B485B000AF78607B68002B0FD07B6812
:10121C00DB68002B0BD07B681B69002B07D07B682D
:10122C005B69002B03D07B685B68002B02D1FF232A
:10123C00FB7301E00023FB7397F90F30184614374A
:10124C00BD465DF8047B704780B584B000AF0346A3
:10125C003960FB710023BB7307F10E013B6801225F
:10126C004B20FFF74BFE0346FB7397F90F30002B17
:10127C001ED1BB7B5BB223F001035AB297F9073046
:10128C0003F001035BB213435BB2DBB2BB7307F138
:10129C000E013B6801224B20FFF704FE0346FB7353
:1012AC0097F90F30002B03D13B68FA7983F82A2089
:1012BC0097F90F3018461037BD4680BD80B588B001
:1012CC0000AF786000233B8300237B6107F10803A8
:1012DC0000221A605A601A810023BB8307F118019F
:1012EC007B6802225D20FFF709FE0346FB7797F926
:1012FC001F30002B6AD107F114017B680422622095
:10130C00FFF7FCFD0346FB7797F91F30002B5DD1EF
:10131C0007F108017B680A226820FFF7EFFD0346FE
:10132C00FB7797F91F30002B50D13B7E5AB27B686C
:10133C001A767B7E5AB27B685A76BB7D5AB27B6832
:10134C009A76FB7D5AB27B68DA76FB7A1B02BB83FA
:10135C00BB7A1A46BB8B13439AB27B689A837B7A0F
:10136C001B02BB833B7A1A46BB8B13439BB21AB24C
:10137C007B68DA83FB7B1B02BB83BB7B1A46BB8B74
:10138C0013439BB21AB27B681A847B7D1B02BB830E
:10139C003B7D1A46BB8B13439BB21AB27B685A84B3
:1013AC007A7C7B6883F824203B7C5AB27B6883F878
:1013BC0025207B7B1B029BB203F4FE43BB833B7B50
:1013CC001A46BB8B13439AB27B68DA8497F91F30A9
:1013DC0018462037BD4680BD80B584B000AF0346AB
:1013EC003960FB7107F10E013B6801224C20FFF7BD
:1013FC0085FD0346FB7397F90F30002B18D1BB7B8F
:10140C005BB223F006035AB297F907305B005BB26C
:10141C0003F006035BB213435BB2DBB2BB7307F1A1
:10142C000E013B6801224C20FFF73CFD0346FB7389
:10143C0097F90F3018461037BD4680BD80B584B083
:10144C0000AF78607868FFF7DBFE0346FB7397F913
:10145C000F30002B12D17B6893F82A30002B0DD162
:10146C0079680120FFF7F0FE0346FB737B685B692C
:10147C007A685268114640F6B830984797F90F30A1
:10148C0018461037BD4680BD80B584B000AF78607B
:10149C0039607B68DB78BB7307F10E013B68012276
:1014AC005120FFF7FFFC0346FB7397F90F301846EA
:1014BC001037BD4680BD80B584B000AF7860396010
:1014CC007B681B79BB7307F10E013B68012252202C
:1014DC00FFF7E8FC0346FB7397F90F3018461037FB
:1014EC00BD4680BD80B584B000AF7860396007F12F
:1014FC000E013B6801224C20FFF700FD0346FB73F5
:10150C0097F90F30002B19D1BB7B5BB223F038035A
:10151C005AB27B689B785BB2DB005BB203F038039A
:10152C005BB213435BB2DBB2BB7307F10E013B68DA
:10153C0001224C20FFF7B6FC0346FB7397F90F30E2
:10154C0018461037BD4680BD80B584B000AF7860BA
:10155C00396039687868FFF7C5FF0346FB7397F964
:10156C000F30002B0FD139687868FFF78DFF0346D9
:10157C00FB7397F90F30002B05D139687868FFF7AA
:10158C009AFF0346FB7397F90F3018461037BD4688
:10159C0080BD80B48FB000AF03463A60FB800B4631
:1015AC00BB800023BB86B7F9063013F5805F77D07C
:1015BC00BB88002B02D0BB88BB8609E03B68DB8C68
:1015CC00002B03D03B68DB8CBB8601E00023BB8681
:1015DC00BB8E002B60D03B68DB8C9B033B63BB8ECC
:1015EC003A6B92FBF3F39BB2A3F58043FB85FB8D27
:1015FC00FB86B7F93630B7F9362002FB03F3BB6232
:10160C003B6893F925301A46BB6A002B00DA7F330E
:10161C00DB1102FB03F37B623B6893F82430DB01A4
:10162C003B62B7F936203B6A02FB03F3FB617A6A33
:10163C00FB691344002B01DA03F2FF135B1203F571
:10164C008013BB613B6893F91A30A0337B61BB6993
:10165C007A6902FB03F3002B01DA03F6FF731B1309
:10166C003B61B7F906203B6902FB03F3FB60FB68A7
:10167C00002B02DA03F5FF531F335B13FB86B7F91C
:10168C0036203B6893F91830DB001344002B00DA4A
:10169C000F331B11FB8606E04FF40043FB8602E080
:1016AC004FF40043FB86B7F9363018463C37BD463D
:1016BC005DF8047B704780B48DB000AF03463A6090
:1016CC00FB800B46BB800023BB85B7F9063013F5B6
:1016DC00805F75D0BB88002B02D0BB88BB8509E02E
:1016EC003B68DB8C002B03D03B68DB8CBB8501E0BB
:1016FC000023BB85BB8D002B5ED03B68DB8C9A0333
:10170C00BB8D92FBF3F3BB62BB6A9BB2A3F5804328
:10171C00FB84FB8CFB85B7F92E30B7F92E2002FB2E
:10172C0003F33B623B6893F925301A463B6A002B66
:10173C0000DA7F33DB1102FB03F3FB613B6893F8A8
:10174C002430DB01BB61B7F92E30BA6903FB02F21E
:10175C00FB691344002B01DA03F2FF135B127B616C
:10176C003B6893F91B30A0333B617B6903F5801315
:10177C003A6902FB03F3002B01DA03F6FF731B1328
:10178C00FB60B7F90620FB6802FB03F3BB60BB6888
:10179C00002B02DA03F5FF531F335B13FB85B7F9FC
:1017AC002E203B6893F91930DB001344002B00DA30
:1017BC000F331B11FB8506E04FF40043FB8502E061
:1017CC004FF40043FB85B7F92E3018463437BD462D
:1017DC005DF8047B7047000080B489B000AF03460D
:1017EC003A60FB800B46BB80B7F9063013F5804F8F
:1017FC0062D03B68B3F91E30002B5AD03B689B8BF0
:10180C00002B56D0BB88002B53D03B68DB8C002BB5
:10181C004FD03B68DB8CBA88D31A9BB27B833B6876
:10182C00B3F920301A46B7F91A3002FB03F3002B38
:10183C0000DA03339B107B61B7F906303A68B2F9D2
:10184C0022209B1ADB033B613B689B8B1A46B7F942
:10185C0004305B0002FB03F3FB60FB6803F5004301
:10186C00002B02DA03F57F43FF331B147B813A69AB
:10187C007B69D21A3B68B3F91E301946B7F90A30A6
:10188C000B4492FBF3F3FB61FB69B3F5004F03DBF5
:10189C0047F6FF73FB6105E0FB6913F5004F01DCB4
:1018AC000A4BFB61FB69002B00DA0F331B11FB6148
:1018BC0004E0074BFB6101E0054BFB61FB691BB2CC
:1018CC0018462437BD465DF8047B70470180FFFF46
:1018DC000080FFFF80B584B000AF78600023FB73FD
:1018EC00786800F049FB0346FB7397F90F30002B27
:1018FC0036D17B6800221A707B685B7D002B08D187
:10190C0007F10E017B680122012000F02FF803463D
:10191C00FB7397F90F30002B22D107F10D017B6877
:10192C000122012000F022F80346FB7397F90F30D7
:10193C00002B15D17B7B002B05D0786800F05CFB6D
:10194C000346FB7301E0FC23FB7397F90F30002B6C
:10195C0006D17B7B7968184600F030FB0346FB739D
:10196C0097F90F3018461037BD4680BD90B587B03B
:10197C0000AFB9607A603B600346FB730023FB75D4
:10198C00386800F0F9FA0346FB7597F91730002B0D
:10199C001ED1BB68002B1BD03B685B7D002B03D199
:1019AC00FB7B63F07F03FB733B689C683B685B6865
:1019BC00F87B7A68B968A04703461A463B681A75E3
:1019CC003B6893F91430002B04D0FE23FB7501E027
:1019DC00FF23FB7597F9173018461C37BD4690BD91
:1019EC0090B587B000AFB9607A603B600346FB737B
:1019FC000023FB750023BB75386800F0BDFA034665
:101A0C00FB7597F91730002B40D1BB68002B3DD0EC
:101A1C003B685B7D002B1DD13B68DC68FA7BBB7D92
:101A2C001344D8B2BB7DBA68D1183B685B680122FD
:101A3C00A04703461A463B681A75BB7D0133BB753C
:101A4C00BB7D7A689A4219D93B6893F91430002B04
:101A5C00E2D013E03B685B7D012B03D03B685B7DE0
:101A6C00022B0BD13B68DC683B685B68F87B7A68BF
:101A7C00B968A04703461A463B681A753B6893F948
:101A8C001430002B04D0FE23FB7501E0FF23FB7503
:101A9C0097F9173018461C37BD4690BD80B584B0F9
:101AAC0000AF786039600023FB737B68002B3FD05C
:101ABC0007F10C013B6801223720FFF757FF034663
:101ACC00FB7397F90F30002B34D13B7B03F00303EE
:101ADC00BB73BB7B032B28D801A252F823F000BFA9
:101AEC00FD1A00081F1B0008271B00082F1B0008ED
:101AFC003B7BDB097B737B7B002B06D139687868D9
:101B0C0000F0A1FA0346FB7314E07B6800221A7004
:101B1C0010E07B6801221A700CE07B6802221A70BC
:101B2C0008E07B6803221A7004E0F923FB7301E0E0
:101B3C00FF23FB7397F90F3018461037BD4680BD55
:101B4C0080B584B000AF03463960FB710023FB7392
:101B5C0007F10E0339681846FFF7A0FF0346FB7325
:101B6C0097F90F30002B37D1BB7B002B11D0396884
:101B7C00002000F026FB0346FB7397F90F30002B77
:101B8C0007D13B681B693A685268114640F6C4108D
:101B9C00984797F90F30002B1ED1FB79042B09D0F5
:101BAC00042B15DC002B16D0002B11DB013B022B78
:101BBC000ED805E0386800F095FA0346FB730BE08D
:101BCC00FB793968184600F0FCFA0346FB7303E016
:101BDC00F923FB7300E000BF97F90F30184610375C
:101BEC00BD4680BD80B58AB000AFF860B9607A6040
:101BFC00002387F8273007F1100300221A609A801F
:101C0C00FB68002B02D0BB68002B03D1FF2387F8A5
:101C1C00273054E007F110017B6806221D20FFF7E6
:101C2C00A5FE034687F8273097F92730002B46D1BD
:101C3C00BB7C1A047B7C1B0213433A7C1343FB6171
:101C4C00FB6903F40003002B04D0FB6943F07F43D2
:101C5C003B6201E0FB693B62386AFEF763FC4FF0C4
:101C6C0000021A4BFEF7F2FD02460B4610461946CF
:101C7C00FEF7D4FE0246FB685A60BB689B78012BCA
:101C8C0019D17B7D1A043B7D1B021343FA7C134351
:101C9C00BB61B869FEF736FC4FF000020C4BFEF747
:101CAC00D5FD02460B4610461946FEF7B7FE024616
:101CBC00FB681A6003E0FB684FF000021A6097F9AA
:101CCC00273018462837BD4680BD00BF0000F040C5
:101CDC000000504080B584B000AF786039600023BC
:101CEC00FB737B68002B2BD007F10C013B680222A5
:101CFC003620FFF73BFE0346FB7397F90F30002BA2
:101D0C0020D13B7B03F00703DAB27B681A703B7B74
:101D1C00DB10DBB203F00703DAB27B685A703B7B53
:101D2C009B11DBB203F00103DAB27B689A707B7B08
:101D3C009B10DBB203F01F03DAB27B68DA7001E0B0
:101D4C00FF23FB7397F90F3018461037BD4680BD43
:101D5C0080B584B000AF786039600023FB7300233A
:101D6C00BB817B68002B65D07B68DB78172B04D894
:101D7C00386800F05DFA0346FB7397F90F30002BBF
:101D8C005AD107F10C013B6802223620FFF7EEFD19
:101D9C000346FB7397F90F30002B4DD13B7B5BB2A5
:101DAC0023F007035AB27B681B785BB203F007037E
:101DBC005BB213435BB2DBB23B733B7B5BB223F096
:101DCC0038035AB27B685B785BB2DB005BB203F022
:101DDC0038035BB213435BB2DBB23B733B7B5BB24E
:101DEC0023F040035AB27B689B785BB29B015BB2D9
:101DFC0003F040035BB213435BB2DBB23B737B7B00
:101E0C005BB223F07C035AB27B68DB785BB29B003D
:101E1C005BB203F07C035BB213435BB2DBB27B734C
:101E2C0007F10C013B6802223620FFF7D9FD03466F
:101E3C00FB7301E0FF23FB7397F90F301846103743
:101E4C00BD4680BD80B584B000AF7860396000239A
:101E5C00FB737B68002B33D007F10C013B6802222B
:101E6C003020FFF783FD0346FB7397F90F30002BEF
:101E7C0028D13B7BDB10DBB203F00103DAB27B68C9
:101E8C009A703B7B5B11DBB203F00103DAB27B6827
:101E9C00DA703B7B9B10DBB203F00103DAB27B6898
:101EAC001A717B7B03F00703DAB27B681A707B7BB9
:101EBC00DB10DBB203F00703DAB27B685A7001E087
:101ECC00FF23FB7397F90F3018461037BD4680BDC2
:101EDC0080B584B000AF786039600023FB737B68F9
:101EEC00002B41D07B681B78002B03D17B685B787F
:101EFC00002B04D0386800F09BF90346FB7397F96C
:101F0C000F30002B32D107F10E0339681846FFF75A
:101F1C00C5FD0346FB7397F90F30002B26D1BB7B15
:101F2C00002B05D039680020FFF70AFE0346FB732F
:101F3C0097F90F30002B05D13968786800F099F9C2
:101F4C000346FB7397F90F30002B0FD1BB7B002B93
:101F5C000CD0BB7B042B09D0BB7B39681846FFF730
:101F6C00EFFD0346FB7301E0FF23FB7397F90F3082
:101F7C0018461037BD4680BD80B485B000AF786080
:101F8C000023FB737B68002B0BD07B689B68002BBA
:101F9C0007D07B68DB68002B03D07B681B69002BA8
:101FAC0002D1FF23FB7301E00023FB7397F90F3081
:101FBC0018461437BD465DF8047B704780B485B075
:101FCC0000AF03463960FB710023FB73FB79502B88
:101FDC0002D0FB79512B05D13B68FA791A7000239A
:101FEC00FB7301E0FD23FB7397F90F301846143790
:101FFC00BD465DF8047B704780B584B000AF786057
:10200C000023FB7307F10E037968184600F0A7F95B
:10201C000346FB7397F90F30002B0ED1BB7B03F0FB
:10202C000203002B07D0BB7B03F00403002B02D16F
:10203C000023FB7301E0FB23FB7397F90F30184669
:10204C001037BD4680BD80B586B000AF7860396072
:10205C000023FB750023BB7507F1100300221A60E7
:10206C001A710023FB6007F116013B68012218204E
:10207C00FFF77CFC0346FB7597F91730002B18D142
:10208C00BB7D03F00303DBB2BB7507F10C033968AE
:10209C001846FFF71FFE0346FB7597F91730002B08
:1020AC0007D107F1100339681846FFF7CBFE03463A
:1020BC00FB7597F91730002B0ED1FB7B182B0BD926
:1020CC00BB7D002B08D13B7C002B05D17B7C002BEE
:1020DC0002D17B6804221A7097F91730184618370A
:1020EC00BD4680BD80B584B000AF78600023FB7323
:1020FC0007F10E017B6801223720FFF737FC0346FE
:10210C00FB7397F90F30002B55D1BB7B03F07F038A
:10211C00DBB2BB73BB7B5BB223F07C035BB243F0E3
:10212C0070035BB2DBB2BB7307F10E017B6801225B
:10213C003720FFF755FC0346FB7397F90F30002B44
:10214C001AD107F10E017B6801223120FFF70EFC3A
:10215C000346FB7397F90F30002B0DD1BB7B23F09B
:10216C003F03DBB2BB7307F10E017B680122312008
:10217C00FFF736FC0346FB7397F90F30002B1AD18F
:10218C0007F10E017B6801221820FFF7EFFB0346D5
:10219C00FB7397F90F30002B0DD1BB7B23F003039E
:1021AC00DBB2BB7307F10E017B6801221820FFF72D
:1021BC0017FC0346FB7397F90F3018461037BD46D2
:1021CC0080BD80B584B000AF03463960FB7100233D
:1021DC00FB7307F10E013B6801223720FFF7C6FBAA
:1021EC000346FB7397F90F30002B1BD1BB7B63F0BD
:1021FC007F03DBB2BB73BB7B5BB223F003035AB22E
:10220C0097F9073003F003035BB213435BB2DBB205
:10221C00BB7307F10E013B6801223720FFF7E0FB8F
:10222C000346FB7397F90F3018461037BD4680BD37
:10223C0080B584B000AF78600023FB7307F10E0308
:10224C0079681846FFF72AFC0346FB7397F90F30A1
:10225C00002B08D1BB7B042B05D179680020FFF73C
:10226C006FFC0346FB7397F90F3018461037BD46C9
:10227C0080BD80B584B000AF786039600023FB73FB
:10228C0007F10C013B6802223020FFF76FFB03467D
:10229C00FB7397F90F30002B5BD13B7B5BB223F0C8
:1022AC0008035AB27B689B785BB2DB005BB203F02D
:1022BC0008035BB213435BB2DBB23B733B7B5BB299
:1022CC0023F020035AB27B68DB785BB25B015BB214
:1022DC0003F020035BB213435BB2DBB23B733B7B7B
:1022EC005BB223F004035AB27B681B795BB29B0090
:1022FC005BB203F004035BB213435BB2DBB23B7320
:10230C007B7B5BB223F007035AB27B681B785BB212
:10231C0003F007035BB213435BB2DBB27B737B7BD3
:10232C005BB223F038035AB27B685B785BB2DB009C
:10233C005BB203F038035BB213435BB2DBB27B736B
:10234C0007F10C013B6802223020FFF749FB0346E2
:10235C00FB7397F90F3018461037BD4680BD80B51A
:10236C0084B000AF786039600023FB737B68002B6E
:10237C0008D03B68012279682820FFF7F7FA03465A
:10238C00FB7301E0FF23FB7397F90F3018461037EE
:10239C00BD4680BD80B483B000AF78607B681B689D
:1023AC0043F001027B681A6000BF0C37BD465DF834
:1023BC00047B704780B483B000AF78607B681B6887
:1023CC0023F001027B681A6000BF0C37BD465DF834
:1023DC00047B704780B483B000AF786039607B6851
:1023EC005B681B0C1B043A681A437B685A6000BF7D
:1023FC000C37BD465DF8047B704780B483B000AFEA
:10240C0078607B681B6843F400727B681A6000BFBD
:10241C000C37BD465DF8047B704780B483B000AFC9
:10242C00786039607B68DB6823F460123B681A4380
:10243C007B68DA6000BF0C37BD465DF8047B7047E3
:10244C0080B483B000AF786039607B689B6823F4FC
:10245C00F0723B681A437B689A6000BF0C37BD462C
:10246C005DF8047B704780B483B000AF78607B6804
:10247C00DB6843F080427B68DA6000BF0C37BD46F6
:10248C005DF8047B704780B483B000AF78607B68E4
:10249C00DB6823F080427B68DA6000BF0C37BD46F6
:1024AC005DF8047B704780B483B000AF78607B68C4
:1024BC005B6903F00103012B01D1012300E0002330
:1024CC0018460C37BD465DF8047B704780B483B06A
:1024DC0000AF78607B685B6903F00203022B01D1CB
:1024EC00012300E0002318460C37BD465DF8047B41
:1024FC00704780B483B000AF78607B685B6903F091
:10250C000803082B01D1012300E0002318460C37E7
:10251C00BD465DF8047B704780B483B000AF786033
:10252C007B689B6943F008027B689A6100BF0C379B
:10253C00BD465DF8047B704780B483B000AF786013
:10254C007B689B6943F010027B689A6100BF0C3773
:10255C00BD465DF8047B704780B483B000AF7860F3
:10256C007B689B6943F020027B689A6100BF0C3743
:10257C00BD465DF8047B704780B483B000AF7860D3
:10258C007B689B6943F040027B689A6100BF0C3703
:10259C00BD465DF8047B704780B483B000AF7860B3
:1025AC007B689B6943F400727B689A6100BF0C37AF
:1025BC00BD465DF8047B704780B483B000AF786093
:1025CC007B689B6943F480727B689A6100BF0C370F
:1025DC00BD465DF8047B704780B483B000AF786073
:1025EC007B689B6943F400627B689A6100BF0C377F
:1025FC00BD465DF8047B704780B483B000AF786053
:10260C007B6830331B78DBB218460C37BD465DF85F
:10261C00047B704780B483B000AF78600B46FB70CE
:10262C007B682033FA781A7000BF0C37BD465DF812
:10263C00047B704780B483B000AF78607B681B6804
:10264C0023F080027B681A6000BF0C37BD465DF832
:10265C00047B704780B485B000AF786039603B680C
:10266C00012B2ED03B68042B29D03B68102B24D097
:10267C003B68402B1FD03B68B3F5807F19D03B687B
:10268C00B3F5806F13D03B68B3F5805F0DD03B681A
:10269C00B3F5804F07D03B68B3F5803F01D10823D9
:1026AC0010E009230EE007230CE006230AE00523C3
:1026BC0008E0042306E0032304E0022302E00123E4
:1026CC0000E00023FB737B6818331946FB7B0B4A35
:1026DC00D35C0B44BB60BB681A68FB7B0849CB5CC2
:1026EC00194604238B40DB431A40BB681A6000BFB9
:1026FC001437BD465DF8047B704700BF601D0108B0
:10270C006C1D010880B485B000AF786039603B68FF
:10271C00012B2ED03B68042B29D03B68102B24D0E6
:10272C003B68402B1FD03B68B3F5807F19D03B68CA
:10273C00B3F5806F13D03B68B3F5805F0DD03B6869
:10274C00B3F5804F07D03B68B3F5803F01D1082328
:10275C0010E009230EE007230CE006230AE0052312
:10276C0008E0042306E0032304E0022302E0012333
:10277C0000E00023FB737B6818331946FB7B0A4A85
:10278C00D35C0B44BB60BB681A68FB7B0749CB5C12
:10279C00194608238B401A43BB681A6000BF1437D4
:1027AC00BD465DF8047B7047601D01086C1D010877
:1027BC0080B487B000AFF860B9607A60BB68012B59
:1027CC002ED0BB68042B29D0BB68102B24D0BB683F
:1027DC00402B1FD0BB68B3F5807F19D0BB68B3F515
:1027EC00806F13D0BB68B3F5805F0DD0BB68B3F5B9
:1027FC00804F07D0BB68B3F5803F01D1082310E0B0
:10280C0009230EE007230CE006230AE0052308E069
:10281C00042306E0032304E0022302E0012300E08A
:10282C000023FB75FB6818331946FB7D0E4AD35CFD
:10283C000B443B613B691A68FB7D0C49CB5C194628
:10284C0003238B40DB431A407B681B0CF97D074844
:10285C00415C8B401A433B691A6000BF1C37BD4674
:10286C005DF8047B704700BF601D0108781D0108EE
:10287C0080B487B000AFF860B9607A60BB68012B98
:10288C002ED0BB68042B29D0BB68102B24D0BB687E
:10289C00402B1FD0BB68B3F5807F19D0BB68B3F554
:1028AC00806F13D0BB68B3F5805F0DD0BB68B3F5F8
:1028BC00804F07D0BB68B3F5803F01D1082310E0EF
:1028CC0009230EE007230CE006230AE0052308E0A9
:1028DC00042306E0032304E0022302E0012300E0CA
:1028EC000023FB75FB6818331946FB7D0E4AD35C3D
:1028FC000B443B613B691A68FB7D0C49CB5C194668
:10290C000C238B40DB431A407B681B0CF97D07487A
:10291C00415C8B401A433B691A6000BF1C37BD46B3
:10292C005DF8047B704700BF601D0108781D01082D
:10293C0080B487B000AFF860B9607A60BB68012BD7
:10294C002ED0BB68042B29D0BB68102B24D0BB68BD
:10295C00402B1FD0BB68B3F5807F19D0BB68B3F593
:10296C00806F13D0BB68B3F5805F0DD0BB68B3F537
:10297C00804F07D0BB68B3F5803F01D1082310E02E
:10298C0009230EE007230CE006230AE0052308E0E8
:10299C00042306E0032304E0022302E0012300E009
:1029AC000023FB75FB6818331946FB7D0E4AD35C7C
:1029BC000B443B613B691A68FB7D0C49CB5C1946A7
:1029CC00F0238B40DB431A407B681B0CF97D0748D6
:1029DC00415C8B401A433B691A6000BF1C37BD46F3
:1029EC005DF8047B704700BF601D0108781D01086D
:1029FC0080B487B000AFF860B9607A60BB68012B17
:102A0C002ED0BB68042B29D0BB68102B24D0BB68FC
:102A1C00402B1FD0BB68B3F5807F19D0BB68B3F5D2
:102A2C00806F13D0BB68B3F5805F0DD0BB68B3F576
:102A3C00804F07D0BB68B3F5803F01D1082310E06D
:102A4C0009230EE007230CE006230AE0052308E027
:102A5C00042306E0032304E0022302E0012300E048
:102A6C000023FB75FB681A6AFB7D0B49CB5C19468E
:102A7C000A238B40DB431A40FB7D0749CB5C19468C
:102A8C007B688B401A43FB681A6200BF1C37BD463B
:102A9C005DF8047B704700BF841D010880B483B0CF
:102AAC0000AF786039607B689B6823F4A03323F017
:102ABC0007033A681A437B689A6000BF0C37BD461F
:102ACC005DF8047B704780B483B000AF78603960E8
:102ADC007B685B6823F0007323F070033A681A4339
:102AEC007B685A6000BF0C37BD465DF8047B7047AD
:102AFC0080B483B000AF786039607B685B6823F486
:102B0C0070023B681A437B685A6000BF0C37BD46A5
:102B1C005DF8047B704780B483B000AF78607B684D
:102B2C009B6823F080027B689A6000BF0C37BD461F
:102B3C005DF8047B704780B483B000AF7860396077
:102B4C007B683A689A6100BF0C37BD465DF8047B20
:102B5C00704780B483B000AF786039607B683A68A6
:102B6C009A6200BF0C37BD465DF8047B70470000CD
:102B7C0080B485B000AF78600A4BD3F88C2009493B
:102B8C007B681343C1F88C30064BD3F88C207B68E0
:102B9C001340FB60FB6800BF1437BD465DF8047B37
:102BAC00704700BF000C024480B485B000AF786061
:102BBC000A4BD3F89C2009497B681343C1F89C301D
:102BCC00064BD3F89C207B681340FB60FB6800BF6E
:102BDC001437BD465DF8047B704700BF000C0244FF
:102BEC0080B485B000AF78600A4BD3F8A4200949B3
:102BFC007B681343C1F8A430064BD3F8A4207B6840
:102C0C001340FB60FB6800BF1437BD465DF8047BC6
:102C1C00704700BF000C024480B500AF0B48FFF7B3
:102C2C007BFC0A48FFF788FC0848FFF795FC07482F
:102C3C00FFF7A2FC0548FFF7BFFC0448FFF7ACFC0C
:102C4C000248FFF7C9FC00BF80BD00BF0030014047
:102C5C0080B500AF04210548FFF76DFF0448FFF76E
:102C6C00A9FBFFF7D9FF00BF80BD00BF00040242E3
:102C7C000030014080B582B000AF78600B48FFF7A0
:102C8C0099FBFFF7C9FF79680848FFF7A3FB0421FC
:102C9C000748FFF75EFF0548FFF77CFB0348FFF78B
:102CAC00ACFB002318460837BD4680BD0030014000
:102CBC000004024280B584B000AF03463960FB715A
:102CCC001F4BFB600BE0FB68013BFB60FB68002BC0
:102CDC0005D11C4B01221A704FF0FF332BE01A4820
:102CEC00FFF7F4FB0346002BEDD0FB791946164891
:102CFC00FFF790FC124BFB600BE0FB68013BFB60A9
:102D0C00FB68002B05D10F4B02221A704FF0FF33DA
:102D1C0011E00D48FFF7C7FB0346002BEDD00A4826
:102D2C00FFF76AFC03461A463B681A703B681A7830
:102D3C00064B1A70002318461037BD4680BD00BFE5
:102D4C00A08601001A090020003001401B09002058
:102D5C0080B582B000AF144B7B600DE07B68013B0B
:102D6C007B607B68002B07D1104B03221A70FFF796
:102D7C006FFF4FF0FF3313E00D48FFF7BAFB03462C
:102D8C00002BEBD004210B48FFF7D5FE0848FFF7CA
:102D9C00C3FB0748FFF7D0FB0548FFF70BFB0023ED
:102DAC0018460837BD4680BDA08601001A090020D0
:102DBC00003001400004024280B586B000AFB9601B
:102DCC007A603B600346FB73BB68002B02D07B68C8
:102DDC00002B02D14FF0FF3335E07B6801331846EE
:102DEC00FFF748FF0346002B02D04FF0FF332AE0D9
:102DFC0007F11302FB7B11461846FFF75BFF0346F6
:102E0C00002B04D0FFF724FF4FF0FF331BE000230F
:102E1C007B6111E0BA687B69134419460020FFF707
:102E2C0049FF0346002B04D0FFF712FF4FF0FF338E
:102E3C0009E07B6901337B617A697B689A42E9D34B
:102E4C00FFF786FF034618461837BD4680BD80B590
:102E5C0086B000AFB9607A603B600346FB73BB6819
:102E6C00002B02D07B68002B02D14FF0FF3338E0EF
:102E7C007B6801331846FFF7FDFE0346002B02D09A
:102E8C004FF0FF332DE007F11302FB7B1146184680
:102E9C00FFF710FF0346002B04D0FFF7D9FE4FF0CD
:102EAC00FF331EE000237B6114E0BA687B69134496
:102EBC001B7807F1130211461846FFF7FBFE034679
:102ECC00002B04D0FFF7C4FE4FF0FF3309E07B6901
:102EDC0001337B617A697B689A42E6D3FFF738FF4E
:102EEC00034618461837BD4680BD000080B582B039
:102EFC0000AF786039607B68002B09D07B6803F2E7
:102F0C00E733054AA2FB03239B09184602F060FB3A
:102F1C0000BF0837BD4680BDD34D621080B584B06C
:102F2C0000AF07F1080300221A601A71042141480E
:102F3C00FFF701FE404B00225A753F4B3F4A9A6007
:102F4C003D4B3F4ADA603C4B3E4A1A613A4B0022F9
:102F5C005A603948FEF7BEFC0346FB7397F90F30F5
:102F6C0013F1050F18D10023FB71F91D324B01220F
:102F7C000120FEF7FBFC0346FB7397F90F30002B87
:102F8C000AD1FB79502B02D0FB79512B04D1FA7961
:102F9C00294B1A700023FB7397F90F30002B02D0CA
:102FAC0097F90F3041E024490020FEF7C9FD034694
:102FBC00FB7397F90F30002B02D097F90F3034E0E8
:102FCC00214B01229A70204B06221A701E4B0222B2
:102FDC005A701D4B0F22DA7017491B48FEF7B8FECA
:102FEC000346FB7397F90F30002B02D097F90F3083
:102FFC001BE001233B7201237B720123BB72012373
:10300C00FB7207F108030C491846FEF761FF0346F3
:10301C00FB7397F90F30002B02D097F90F3004E0B7
:10302C0005490120FEF78CFD034618461037BD46B6
:10303C0080BD00BF00040242FC080020C52D000822
:10304C005B2E0008F92E00081409002080B586B00C
:10305C0000AF7860396007F10C030B4A0B49184636
:10306C00FEF7C0FD0346FB7597F91730002B05D111
:10307C003A697B681A60FA683B681A6097F91730EE
:10308C0018461837BD4680BDFC08002014090020E6
:10309C0080B500AF4FF480510448FFF74CFD044855
:1030AC00FFF788F9FFF7B8FD00BF80BD00040242AE
:1030BC000030014080B582B000AF78607B68002B97
:1030CC0003D07B68B3F5803F02D36FF0030321E09C
:1030DC001248FFF76FF9FFF79FFD79680F48FFF76C
:1030EC0079F904210E48FFF726FD10210D48FFF752
:1030FC0022FD4FF400710C48FFF71DFD4FF4805179
:10310C000748FFF726FD0548FFF744F90348FFF78A
:10311C0074F9002318460837BD4680BD00300140C5
:10312C0000040242000002420008024280B582B054
:10313C0000AF134B7B600AE07B68013B7B607B68D4
:10314C00002B04D1FFF7A4FF6FF0030314E00D482C
:10315C00FFF7CFF90346002BEED04FF480510A480D
:10316C00FFF7E9FC0748FFF7D7F90648FFF7E4F942
:10317C000448FFF71FF9002318460837BD4680BDE9
:10318C00A0860100003001400004024280B586B0E8
:10319C0000AFB9607A603B600346FB73BB68002BE1
:1031AC0002D07B68002B02D14FF0FF3335E07B68F7
:1031BC0001331846FFF77EFF0346002B02D06FF059
:1031CC0003032AE007F11302FB7B11461846FFF7B5
:1031DC0071FD0346002B04D0FFF75AFF6FF0030379
:1031EC001BE000237B6111E0BA687B69134419462C
:1031FC000020FFF75FFD0346002B04D0FFF748FFCC
:10320C006FF0030309E07B6901337B617A697B68AA
:10321C009A42E9D3FFF78AFF034618461837BD4692
:10322C0080BD80B586B000AFB9607A603B60034664
:10323C00FB73BB68002B02D07B68002B02D14FF0D4
:10324C00FF3338E07B6801331846FFF733FF034642
:10325C00002B02D06FF003032DE007F11302FB7B70
:10326C0011461846FFF726FD0346002B04D0FFF746
:10327C000FFF6FF003031EE000237B6114E0BA68BC
:10328C007B6913441B7807F1130211461846FFF7AC
:10329C0011FD0346002B04D0FFF7FAFE6FF0030379
:1032AC0009E07B6901337B617A697B689A42E6D3DA
:1032BC00FFF73CFF034618461837BD4680BD00009B
:1032CC0080B586B000AF3B1D00221A605A609A6030
:1032DC00DA601A744FF480511E48FFF72CFC1E4B19
:1032EC0000225A701C4B1D4ADA601B4B1C4A1A6197
:1032FC00194B1C4A5A61184B174A5A601648FDF76D
:10330C009BFD0346FB7597F91730002B03D1124B2D
:10331C001B78322B02D06FF0010317E002237B7273
:10332C003B1D0D491846FDF785FE0346FB7597F9C5
:10333C001730002B02D097F9173007E000237B7170
:10334C003B1D05491846FDF70BFE0346184618377A
:10335C00BD4680BD000402422809002099310008B6
:10336C002F320008F92E000880B586B000AFF86047
:10337C00B9607A6007F110030D491846FDF7C4FED9
:10338C000346FB7597F91730002B0BD1B7F91020BA
:10339C00FB681A80B7F91220BB681A80B7F91420A1
:1033AC007B681A8097F9173018461837BD4680BDD0
:1033BC002809002080B500AF1E4BB3F9003013F57F
:1033CC00004F35D01C4BB3F9003013F5004F2FD004
:1033DC00194BB3F9003007EE903AF8EEE77A154B3B
:1033EC00B3F9003007EE103AB8EEC77AF0EE470AA0
:1033FC00B0EE670A0DF066FFF0EE407A9FED0F7AA3
:10340C0067EE877A0E4BC3ED007A0D4BD3ED007A45
:10341C00F5EEC07AF1EE10FA00D409E0084BD3EDCA
:10342C00007A9FED087A77EE877A054BC3ED007A28
:10343C0000BF80BD5609002058090020E12E6542CE
:10344C005C0900200000B44380B500AF02F002F824
:10345C0000F0CCF800F040F901F034F900F014FA67
:10346C0000F078FA00F028FB00F0D6FB00F09EFC90
:10347C0000F020FD00F0C0FD00F0DEFE00F028FFA3
:10348C0000F0BEFF01F008F801F052F801F0E8F886
:10349C0000F04EF900F0B2F900F01EFE00F064FFEF
:1034AC0001F092F800F04AFA04213E48FFF743FB82
:1034BC004FF480513B48FFF73EFB10213A48FFF791
:1034CC003AFB4FF400713948FFF735FB642002F0EA
:1034DC007FF8374B00221A70FFF720FD03461A467F
:1034EC00344B1A70FFF7ECFE03461A46324B1A7037
:1034FC00314B1B785BB2002B01D001F065F92D4BE1
:10350C001B785BB2002B01D001F05EF9192002F0A0
:10351C005FF82A492A48FFF799FD03461A46294BBA
:10352C001A70284B1B785BB2002B1AD1234B93EDEE
:10353C00007A254BD3ED007AC7EE276ADFED230A1C
:10354C00B0EE660A0DF0C0FEF0EE407AB7EE007AEF
:10355C0077EE677A9FED1E7A67EE877A1D4BC3ED87
:10356C00007A1D4B1B780133DAB21B4B1A701A4BC5
:10357C001B78042B12D9184B00221A70174A1849C1
:10358C001848FFF7F1FE03461A46174B1A70164BF4
:10359C001B785BB2002B01D1FFF70CFF142002F05B
:1035AC0017F8B6E70004024200000242000802428B
:1035BC001A090020180900205409002020090020B5
:1035CC001C0900201909002000000020AFDC423E3D
:1035DC00002A2D4724090020600900205A090020E8
:1035EC0058090020560900205509002080B59CB0D0
:1035FC0000AF07F120035022002118460DF02FFEDA
:10360C0007F1080300221A605A609A60DA601A61A6
:10361C005A612F4B1B692E4A43F0300313612C4B1C
:10362C001B6903F030037B607B6800BF284B5B6930
:10363C0003F00803082BF9D129233B624FF48033A4
:10364C007B624FF08063BB634FF480537B64022337
:10365C00BB640323FB6401233B651E237B650223B0
:10366C00BB650423FB6502233B660C237B660023AE
:10367C00BB660023FB6607F12003184604F0C8F96B
:10368C000346002B01D001F09FF81F23BB600323DE
:10369C00FB6000233B6100237B610023BB610023A3
:1036AC00FB6107F108030521184604F0E9FD034608
:1036BC00002B01D001F088F8064B1B6823F0300377
:1036CC00044A43F02003136000BF7037BD4680BD31
:1036DC00000802440020024080B5C2B000AF07F5DC
:1036EC008473A3F5847318464FF484731A4600212F
:1036FC000DF0B5FD07F58473A3F584714FF080725E
:10370C004FF00003C1E9002307F58473A3F584731C
:10371C0000229A653B46184605F0F4F80346002B48
:10372C0001D001F051F800BF07F58477BD4680BD8C
:10373C0080B588B000AF3B462022002118460DF022
:10374C008EFD2B4B2B4A1A60294B4FF400225A60EA
:10375C00274B00229A60264B0022DA60244B002271
:10376C001A61234B04225A61214B00221A76204BFA
:10377C0000225A761E4B0122DA611D4B002283F87F
:10378C0020201B4B00229A62194B0022DA62184B44
:10379C00002283F83420164B00221A63144B0022AB
:1037AC009A63134B002283F83C20114802F030F945
:1037BC000346002B01D001F007F80F4B3B600623AA
:1037CC007B600023BB607F23FB6004233B610023F1
:1037DC007B613B461946064802F06EFA0346002B05
:1037EC0001D000F0F1FF00BF2037BD4680BD00BF07
:1037FC007C000020008002420020903680B500AF93
:10380C001F4B204A1A601E4B00225A601C4B002290
:10381C009A601B4B0022DA60194B00221A74184B69
:10382C0000225A74164B00229A74154B10225A61BE
:10383C00134B01229A61124B0122DA61104B0122C7
:10384C001A620F4B01225A620D4B01229A620C4BE9
:10385C000122DA620A4B01221A63094B00225A63D5
:10386C00074B00229A63064B0022DA63044803F0EC
:10387C0071FC0346002B01D000F0A6FF00BF80BDF9
:10388C00E400002000A4004080B582B000AF284BBB
:10389C00D3F88830264A43F00103C2F88830244B11
:1038AC00D3F8883003F001037B607B68214B224AFC
:1038BC001A60204B4FF400725A601E4B00229A6023
:1038CC001C4B4FF40072DA601A4B00221A61194B30
:1038DC0000225A61174B00229A61164B0022DA61C2
:1038EC00144B00221A62134B01225A62114B012213
:1038FC009A62104B0022DA620E4B00221A630D4BB7
:10390C0000225A630B4802F07DFF0346002B01D0C6
:10391C0000F05AFF1021074803F05BF90346002B17
:10392C0001D000F051FF00BF0837BD4680BD00BF7D
:10393C00000C0244480100205000024080B500AF4A
:10394C0003F022FF0346002B01D000F03DFF00BF27
:10395C0080BD000080B5D2B000AF07F5907328226F
:10396C00002118460DF07BFC07F5847300221A60C9
:10397C005A609A60DA601A615A6107F5A473A3F56C
:10398C00A47318464FF484731A4600210DF067FC9B
:10399C0007F5A473A3F5A4714FF000624FF0000378
:1039AC00C1E9002307F5A473A3F5A4730422C3F89B
:1039BC00E0203B46184604F0A5FF0346002B01D03F
:1039CC0000F002FF4FF48050FFF70AF90120FFF7D7
:1039DC00CFF80220FFF7CCF8C023C7F80831022338
:1039EC00C7F80C310023C7F810310023C7F8143185
:1039FC000023C7F818310523C7F81C3107F5847369
:103A0C0019462A480CF033FC0823C7F80831022366
:103A1C00C7F80C310023C7F810310023C7F8143154
:103A2C000023C7F818310523C7F81C3107F5847338
:103A3C0019461F480CF01BFC0023C7F820314FF42B
:103A4C008003C7F824310723C7F828314FF00073DF
:103A5C00C7F82C314FF08073C7F830314FF08063CA
:103A6C00C7F834314FF00053C7F838310023C7F88A
:103A7C003C310023C7F840310723C7F8443107F520
:103A8C00907319460B480CF0B3FC00210948FEF763
:103A9C00C4FC0848FEF7F7FC00210648FEF7D0FCF2
:103AAC0000BF07F5A477BD4680BD00BF00000242F1
:103ABC00000402420030014080B5D2B000AF07F5DF
:103ACC0090732822002118460DF0C9FB07F584736A
:103ADC0000221A605A609A60DA601A615A6107F51E
:103AEC00A473A3F5A47318464FF484731A460021EB
:103AFC000DF0B5FB07F5A473A3F5A4714FF080523C
:103B0C004FF00003C1E9002307F5A473A3F5A473D8
:103B1C002022C3F8E4203B46184604F0F3FE03468B
:103B2C00002B01D000F050FE4FF48040FFF73CF822
:103B3C000420FFF71DF80220FFF71AF80623C7F838
:103B4C0008310223C7F80C310023C7F810310023C9
:103B5C00C7F814310023C7F818310523C7F81C31F6
:103B6C0007F58473194629480CF081FB4FF48063E8
:103B7C00C7F808310223C7F80C310023C7F81031FD
:103B8C000023C7F814310023C7F818310523C7F8F0
:103B9C001C3107F5847319461D480CF068FB002393
:103BAC00C7F820314FF48003C7F824310723C7F836
:103BBC0028310023C7F82C310023C7F830314FF0DF
:103BCC008063C7F834314FF04053C7F838310023C5
:103BDC00C7F83C310023C7F840310723C7F84431FC
:103BEC0007F5907319460B480CF002FC00210948AC
:103BFC00FEF713FC0748FEF736FC00210548FEF7DC
:103C0C001FFC00BF07F5A477BD4680BD000802422B
:103C1C00000402420038004080B5A0B000AF07F1AC
:103C2C006C0300221A605A609A60DA601A6107F11C
:103C3C004C032022002118460DF011FB07F11C0348
:103C4C003022002118460DF00AFB3B1D00221A60A1
:103C5C005A609A60DA601A615A614FF40060FEF79C
:103C6C00BFFF3B23A7F86C3000233B6742F6EB63A6
:103C7C007B670023BB670023FB6707F16C031946C6
:103C8C0048480CF0C7FC4748FEF7D4FC00214548D7
:103C9C00FEF704FF01214348FEF734FD6023FB646B
:103CAC0000233B6500237B650023BB650023FB657C
:103CBC0000233B6600237B660023BB6607F14C03A5
:103CCC001A46012137480CF0BDFD01213548FEF79D
:103CDC00C1FC10213348FEF715FD07F14C031A46C1
:103CEC00102130480CF0AEFD10212E48FEF7B2FC2E
:103CFC004FF480712B48FEF705FD07F14C031A4673
:103D0C004FF4807127480CF09DFD4FF480712548CD
:103D1C00FEF7A0FC00212348FEF7D5FE0021214828
:103D2C00FEF7E6FE1F48FEF7F6FE0023FB610023BC
:103D3C003B6200237B62002387F8283000237B85BD
:103D4C004FF40053FB6200233B6300237B6300238F
:103D5C00BB634FF00073FB6300233B6400237B6465
:103D6C000023BB6407F11C0319460E480CF0CAFD76
:103D7C000120FEF7FDFE4FF4E0637B600223BB6085
:103D8C000023FB6000233B6100237B610123BB61AB
:103D9C003B1D194604480CF06AFA00BF8037BD463B
:103DAC0080BD00BF002C01400000024280B58CB0E9
:103DBC0000AF07F11C0300221A605A609A60DA60A7
:103DCC001A613B1D00221A605A609A60DA601A610F
:103DDC005A610120FEF7E8FE0120FEF7C9FE2223FE
:103DEC007B600223BB600023FB6000233B6100234C
:103DFC007B610123BB613B1D19462D480CF037FA42
:103E0C003B23BB8300233B624FF0FF337B620023D9
:103E1C00BB6207F11C0319464FF080400CF0FAFB13
:103E2C004FF08040FEF706FC00214FF08040FEF77B
:103E3C0035FE00214FF08040FEF745FE4FF08040EC
:103E4C00FEF769FE4FF4803201214FF08040FEF7FF
:103E5C00AFFC002201214FF08040FEF709FD00224B
:103E6C0001214FF08040FEF763FD002201214FF04D
:103E7C008040FEF7BDFD4FF4803210214FF08040A2
:103E8C00FEF796FC002210214FF08040FEF7F0FC6C
:103E9C00002210214FF08040FEF74AFD0022102135
:103EAC004FF08040FEF7A4FD00BF3037BD4680BD0B
:103EBC000000024280B594B000AF07F13C03002231
:103ECC001A605A609A60DA601A6107F11C032022AA
:103EDC00002118460DF0C3F93B1D00221A605A60F0
:103EEC009A60DA601A615A610220FEF75DFE3B238C
:103EFC00BB8700233B6442F6EB637B640023BB640B
:103F0C0007F13C0319463A480CF084FB3848FEF79D
:103F1C0091FB00213648FEF7C1FD01213448FEF724
:103F2C00F1FB6023FB6100233B6200237B620023D7
:103F3C00BB620023FB6207F11C031A4601212C48CB
:103F4C000CF080FC01212A48FEF784FB1021284844
:103F5C00FEF7D8FB07F11C031A46102124480CF07D
:103F6C0071FC10212248FEF775FB4FF4807120483C
:103F7C00FEF7C8FB07F11C031A464FF480711C486E
:103F8C000CF060FC4FF480711948FEF763FB4FF4A2
:103F9C0080511748FEF7B6FB07F11C031A464FF485
:103FAC00805113480CF04EFC4FF480511048FEF732
:103FBC0051FB00210E48FEF786FD0D48FEF7ABFDC8
:103FCC000220FEF7D5FD33237B600223BB60002368
:103FDC00FB6000233B6100237B610223BB613B1D23
:103FEC00194604480CF043F900BF5037BD4680BD5C
:103FFC00000400400004024280B594B000AF07F109
:10400C003C0300221A605A609A60DA601A6107F168
:10401C001C032022002118460DF021F93B1D002223
:10402C001A605A609A60DA601A615A610420FEF7CD
:10403C00BBFD3B23BB8700233B6441F6E6337B642B
:10404C000023BB6407F13C03194621480CF0E2FA4B
:10405C001F48FEF7EFFA00211D48FEF71FFD012156
:10406C001B48FEF74FFB6023FB6100233B620023E0
:10407C007B620023BB620023FB6207F11C031A4620
:10408C00012113480CF0DEFB01211148FEF7E2FA86
:10409C0000210F48FEF717FD0D48FEF73CFD0220EE
:1040AC00FEF766FD40237B600223BB600023FB60B0
:1040BC0000233B6100237B610223BB613B1D19463E
:1040CC0004480CF0D4F800BF5037BD4680BD00BF8B
:1040DC00000800400004024280B59CB000AF07F11C
:1040EC00600300221A605A609A60DA6007F1540388
:1040FC0000221A605A609A6007F1380300221A6095
:10410C005A609A60DA601A615A619A613B1D3422D6
:10411C00002118460DF0A3F8454B464A1A60444B53
:10412C003B225A60424B00229A60414B42F6EB62B2
:10413C00DA603F4B00221A613D4B00225A613C4B26
:10414C0000229A613A4809F03DFC0346002B01D04D
:10415C0000F03AFB4FF480533B6607F160031946BD
:10416C00334809F0FBFD0346002B01D000F02CFB7B
:10417C002F4809F07EFC0346002B01D000F024FBF5
:10418C0000237B650023BB650023FB6507F154030B
:10419C00194627480AF098FC0346002B01D000F082
:1041AC0013FB6023BB630023FB6300233B640023EE
:1041BC007B640023BB640023FB6400233B6507F195
:1041CC003803082219461A4809F0B4FC0346002BA0
:1041DC0001D000F0F9FA00237B600023BB600023C0
:1041EC00FB6000233B6100237B614FF40053BB61F8
:1041FC000023FB6100233B6200237B624FF00073C2
:10420C00BB620023FB6200233B6300237B633B1DEB
:10421C00194607480AF028FD0346002B01D000F090
:10422C00D3FA034800F03EFC00BF7037BD4680BD9A
:10423C00C00100200034014080B500AF224B234A5E
:10424C001A60214B4FF4E1325A601F4B00229A60E6
:10425C001D4B0022DA601C4B00221A611A4B0C22F7
:10426C005A61194B00229A61174B0022DA61164BE6
:10427C0000221A62144B00225A62134B00229A62DB
:10428C0011480AF08BFD0346002B01D000F09CFA7C
:10429C0000210D480BF0D5FD0346002B01D000F09A
:1042AC0093FA002108480BF00AFE0346002B01D0BC
:1042BC0000F08AFA04480BF08BFD0346002B01D06A
:1042CC0000F082FA00BF80BD0C020020004C0040C0
:1042DC0080B500AF224B234A1A60214B4FF4E132D8
:1042EC005A601F4B00229A601D4B0022DA601C4B57
:1042FC0000221A611A4B0C225A61194B00229A6146
:10430C00174B0022DA61164B00221A62144B002262
:10431C005A62134B00229A6211480AF08FFD034631
:10432C00002B01D000F050FA00210D480BF089FD54
:10433C000346002B01D000F047FA002108480BF08F
:10434C00BEFD0346002B01D000F03EFA04480BF0F2
:10435C003FFD0346002B01D000F036FA00BF80BDB4
:10436C00A00200200050004080B500AF224B234A31
:10437C001A60214B4FF4E1325A601F4B00229A60B5
:10438C001D4B0022DA601C4B00221A611A4B0C22C6
:10439C005A61194B00229A61174B0022DA61164BB5
:1043AC0000221A62144B00225A62134B00229A62AA
:1043BC0011480AF043FD0346002B01D000F004FA2B
:1043CC0000210D480BF03DFD0346002B01D000F001
:1043DC00FBF9002108480BF072FD0346002B01D0BD
:1043EC0000F0F2F904480BF0F3FC0346002B01D06B
:1043FC0000F0EAF900BF80BD3403002000780040D3
:10440C0080B500AF224B234A1A60214B4FF4E132A6
:10441C005A601F4B00229A601D4B0022DA601C4B25
:10442C0000221A611A4B0C225A61194B00229A6114
:10443C00174B0022DA61164B00221A62144B002231
:10444C005A62134B00229A6211480AF0A7FC0346E9
:10445C00002B01D000F0B8F900210D480BF0F1FC55
:10446C000346002B01D000F0AFF9002108480BF0F7
:10447C0026FD0346002B01D000F0A6F904480BF0F2
:10448C00A7FC0346002B01D000F09EF900BF80BDB5
:10449C00C80300200038014080B500AF224B234AEE
:1044AC001A60214B4FF4E1325A601F4B00229A6084
:1044BC001D4B0022DA601C4B00221A611A4B0C2295
:1044CC005A61194B00229A61174B0022DA61164B84
:1044DC0000221A62144B00225A62134B00229A6279
:1044EC0011480AF0ABFC0346002B01D000F06CF92C
:1044FC0000210D480BF0A5FC0346002B01D000F069
:10450C0063F9002108480BF0DAFC0346002B01D0BC
:10451C0000F05AF904480BF05BFC0346002B01D069
:10452C0000F052F900BF80BD5C0400200044004044
:10453C0080B500AF224B234A1A60214B4FF4E13275
:10454C005A601F4B00229A601D4B0022DA601C4BF4
:10455C0000221A611A4B0C225A61194B00229A61E3
:10456C00174B0022DA61164B00221A62144B002200
:10457C005A62134B00229A6211480AF00FFC034650
:10458C00002B01D000F020F900210D480BF059FC54
:10459C000346002B01D000F017F9002108480BF05E
:1045AC008EFC0346002B01D000F00EF904480BF0F2
:1045BC000FFC0346002B01D000F006F900BF80BDB4
:1045CC00F00400200048004080B500AF224B234A85
:1045DC001A60214B4FF4E1325A601F4B00229A6053
:1045EC001D4B0022DA601C4B00221A611A4B0C2264
:1045FC005A61194B00229A61174B0022DA61164B53
:10460C0000221A62144B00225A62134B00229A6247
:10461C0011480AF0C3FB0346002B01D000F0D4F87C
:10462C0000210D480BF00DFC0346002B01D000F0CF
:10463C00CBF8002108480BF042FC0346002B01D0BC
:10464C0000F0C2F804480BF0C3FB0346002B01D06A
:10465C0000F0BAF800BF80BD840500200064004063
:10466C0080B500AF154B164A1A60144B08221A710C
:10467C00124B0222DA71114B02225A720F4B00229A
:10468C009A720E4B0022DA720C4B00221A730B4BEF
:10469C0000225A73094B00229A73084B0022DA73DA
:1046AC00064B00221A74054803F07EF80346002BD3
:1046BC0001D000F089F800BF80BD00BF18060020B3
:1046CC000060014080B586B000AF3B4600221A6006
:1046DC005A609A60DA601A615A610420FEF748FA4F
:1046EC008020FEF745FA0120FEF742FA0220FEF781
:1046FC003FFA0820FEF73CFA4FF442412E48FEF7F1
:10470C0028FA10212D48FEF724FA43F204012C4814
:10471C00FEF71FFA04212B48FEF71BFA42F2200386
:10472C003B6000237B6000233B613B4619462248DB
:10473C000BF09DFD4FF442433B6001237B60002353
:10474C00BB600023FB6000233B613B4619461A48C3
:10475C000BF08DFD10233B6001237B600023BB60BD
:10476C000023FB6000233B613B46194613480BF0CA
:10477C007EFD43F204033B6001237B600023BB609E
:10478C000023FB6000233B613B4619460C480BF0B1
:10479C006EFD04233B6001237B600023BB60002380
:1047AC00FB6000233B613B46194606480BF05FFD5E
:1047BC0000BF1837BD4680BD00080242000002420F
:1047CC0000040242000C024280B400AF72B600BF7B
:1047DC0000BFFDE780B400AF00BFBD465DF8047BB1
:1047EC007047000080B5CEB000AF07F59C73A3F501
:1047FC009A73186007F5927300221A605A609A60D7
:10480C00DA601A6107F59C73A3F5907318464FF4A0
:10481C0084731A4600210CF022FD07F59C73A3F556
:10482C009A731B681B68434A93427DD107F59C73AE
:10483C00A3F590714FF400124FF00003C1E900236F
:10484C0007F59C73A3F590730022C3F8D42007F1ED
:10485C001803184604F056F80346002B01D0FFF756
:10486C00B3FF354BD3F88C30334A43F48063C2F832
:10487C008C30314BD3F88C3003F4806207F59C7389
:10488C00A3F592731A6007F59C73A3F592731B68DA
:10489C00294BD3F88C30284A43F00403C2F88C30EF
:1048AC00254BD3F88C3003F0040207F59C73A3F569
:1048BC0094731A6007F59C73A3F594731B681E4BD5
:1048CC00D3F88C301C4A43F00103C2F88C301A4BDD
:1048DC00D3F88C3003F0010207F59C73A3F59673A3
:1048EC001A6007F59C73A3F596731B680923C7F828
:1048FC0024310323C7F828310023C7F82C3107F5DE
:10490C00927319460D4802F0E1FD0823C7F82431D3
:10491C000323C7F828310023C7F82C3107F592730D
:10492C001946074802F0D2FD00BF07F59C77BD463B
:10493C0080BD00BF00800242000C0244000802420D
:10494C000000024280B5CCB000AF07F59873A3F518
:10495C009673186007F58E7300221A605A609A607D
:10496C00DA601A6107F59873A3F5907318464FF443
:10497C0084731A4600210CF072FC07F59873A3F5AA
:10498C0096731B681B68334A93425ED107F5987384
:10499C00A3F590714FF000024FF00403C1E900231E
:1049AC0007F59873A3F590730022C3F8BC2007F1A8
:1049BC001003184603F0A6FF0346002B01D0FFF7A7
:1049CC0003FF254BD3F8A030234A43F40073C2F8FD
:1049DC00A030214BD3F8A03003F4007207F5987384
:1049EC00A3F592731A6007F59873A3F592731B687D
:1049FC00194BD3F88C30184A43F00203C2F88C30B0
:104A0C00154BD3F88C3003F0020207F59873A3F51D
:104A1C0094731A6007F59873A3F594731B684FF49D
:104A2C00C073C7F81C310223C7F820310023C7F824
:104A3C0024310023C7F828310923C7F82C3107F596
:104A4C008E731946054802F041FD00BF07F59877B3
:104A5C00BD4680BD00A40040000C0244000402428C
:104A6C0080B485B000AF78607B681B680B4A9342BA
:104A7C000ED10B4BD3F8A430094A43F40053C2F8BF
:104A8C00A430074BD3F8A43003F40053FB60FB684D
:104A9C0000BF1437BD465DF8047B704700340140FD
:104AAC00000C024480B588B000AF786007F10C03AD
:104ABC0000221A605A609A60DA601A617B681B687F
:104ACC00134A93421FD1134BD3F88C30114A43F045
:104ADC000403C2F88C300F4BD3F88C3003F0040372
:104AEC00BB60BB684FF48073FB6002233B61002307
:104AFC007B610023BB610323FB6107F10C031946A7
:104B0C00054802F0E3FC00BF2037BD4680BD00BF66
:104B1C0000340140000C02440008024280B5DAB0B7
:104B2C0000AF07F5B473A3F5B273186007F5AA7359
:104B3C0000221A605A609A60DA601A6107F5B47341
:104B4C00A3F5907318464FF484731A4600210CF0A9
:104B5C0086FB07F5B473A3F5B2731B681B68AF4AE9
:104B6C00934240F08B8007F5B473A3F590714FF02E
:104B7C0008024FF00003C1E9002307F5B473A3F555
:104B8C00907300229A6607F14803184603F0BAFEA8
:104B9C000346002B01D0FFF717FEA14BD3F89C3036
:104BAC009F4A43F40023C2F89C309D4BD3F89C30B1
:104BBC0003F4002207F5B473A3F592731A6007F59A
:104BCC00B473A3F592731B68954BD3F88C30944A4D
:104BDC0043F00103C2F88C30914BD3F88C3003F0C6
:104BEC00010207F5B473A3F594731A6007F5B47357
:104BFC00A3F594731B688A4BD3F88C30884A43F026
:104C0C000403C2F88C30864BD3F88C3003F00402CA
:104C1C0007F5B473A3F596731A6007F5B473A3F58F
:104C2C0096731B680123C7F854310223C7F8583117
:104C3C000023C7F85C310023C7F860310823C7F89C
:104C4C00643107F5AA731946764802F03FFC4FF41D
:104C5C000063C7F854310223C7F858310023C7F852
:104C6C005C310023C7F860310823C7F8643107F5BD
:104C7C00AA7319466C4802F029FC88E207F5B47354
:104C8C00A3F5B2731B681B68684A93425ED107F5A3
:104C9C00B473A3F590714FF010024FF00003C1E90B
:104CAC00002307F5B473A3F590730022DA6607F1BD
:104CBC004803184603F026FE0346002B01D0FFF7ED
:104CCC0083FD574BD3F89C30554A43F48013C2F8FC
:104CDC009C30534BD3F89C3003F4801207F5B4731B
:104CEC00A3F598731A6007F5B473A3F598731B6852
:104CFC004B4BD3F88C304A4A43F00403C2F88C3047
:104D0C00474BD3F88C3003F0040207F5B473A3F5CA
:104D1C009A731A6007F5B473A3F59A731B684FF472
:104D2C008053C7F854311223C7F858310023C7F801
:104D3C005C310023C7F860310823C7F8643107F5EC
:104D4C00AA731946384802F0C1FB20E207F5B47388
:104D5C00A3F5B2731B681B68354A93426AD107F5F9
:104D6C00B473A3F590714FF040024FF00003C1E90A
:104D7C00002307F5B473A3F5907300225A6707F16B
:104D8C004803184603F0BEFD0346002B01D0FFF785
:104D9C001BFD234BD3F89C30214A43F08043C2F8CF
:104DAC009C301F4BD3F89C3003F0804207F5B47352
:104DBC00A3F59C731A6007F5B473A3F59C731B6879
:104DCC00174BD3F88C30164A43F00103C2F88C30E1
:104DDC00134BD3F88C3003F0010207F5B473A3F531
:104DEC009E731A6007F5B473A3F59E731B684FF49A
:104DFC000043C7F854311223C7F858310023C7F8C1
:104E0C005C310023C7F860310B23C7F8643107F518
:104E1C00AA731946034802F059FBB8E1004C004054
:104E2C00000C024400000242000802420050004004
:104E3C000078004007F5B473A3F5B2731B681B68C8
:104E4C00D54A934266D107F5B473A3F590714FF030
:104E5C0001024FF00003C1E9002307F5B473A3F579
:104E6C0090730022DA6507F14803184603F04AFDF7
:104E7C000346002B01D0FFF7A7FCC84BD3F8A43096
:104E8C00C64A43F48043C2F8A430C44BD3F8A430D0
:104E9C0003F4804207F5B473A3F5A0731A6007F509
:104EAC00B473A3F5A0731B68BC4BD3F88C30BB4A0E
:104EBC0043F00203C2F88C30B84BD3F88C3003F0BB
:104ECC00020207F5B473A3F5A2731A6007F5B47365
:104EDC00A3F5A2731B684FF44043C7F85431022367
:104EEC00C7F858310023C7F85C310023C7F860318C
:104EFC000423C7F8643107F5AA731946A84802F0D1
:104F0C00E5FA002200213A2001F0A4FB3A2001F03E
:104F1C00BBFB3CE107F5B473A3F5B2731B681B68CC
:104F2C00A04A934265D107F5B473A3F590714FF085
:104F3C0002024FF00003C1E9002307F5B473A3F597
:104F4C00907300221A6607F14803184603F0DAFC46
:104F5C000346002B01D0FFF737FC904BD3F89C3065
:104F6C008E4A43F40033C2F89C308C4BD3F89C30FF
:104F7C0003F4003207F5B473A3F5A4731A6007F5B4
:104F8C00B473A3F5A4731B68844BD3F88C30834A99
:104F9C0043F00103C2F88C30804BD3F88C3003F013
:104FAC00010207F5B473A3F5A6731A6007F5B47381
:104FBC00A3F5A6731B680423C7F854311223C7F852
:104FCC0058310023C7F85C310023C7F86031072340
:104FDC00C7F8643107F5AA731946734802F076FADC
:104FEC00002200213B2001F035FB3B2001F04CFB63
:104FFC00CDE007F5B473A3F5B2731B681B686B4A5D
:10500C0093425ED107F5B473A3F590714FF004028F
:10501C004FF00003C1E9002307F5B473A3F59073B7
:10502C0000225A6607F14803184603F06BFC03464E
:10503C00002B01D0FFF7C8FB584BD3F89C30574AD4
:10504C0043F48023C2F89C30544BD3F89C3003F4C7
:10505C00802207F5B473A3F5A8731A6007F5B4732F
:10506C00A3F5A8731B684D4BD3F88C304B4A43F017
:10507C000403C2F88C30494BD3F88C3003F0040293
:10508C0007F5B473A3F5AA731A6007F5B473A3F507
:10509C00AA731B684FF48263C7F854310223C7F814
:1050AC0058310023C7F85C310023C7F8603107235F
:1050BC00C7F8643107F5AA7319463D4802F006FAA1
:1050CC0065E007F5B473A3F5B2731B681B68394A26
:1050DC0093425CD107F5B473A3F590714FF02002A5
:1050EC004FF00003C1E9002307F5B473A3F59073E7
:1050FC0000221A6707F14803184603F003FC034625
:10510C00002B01D0FFF760FB244BD3F89C30234AD3
:10511C0043F00073C2F89C30204BD3F89C3003F062
:10512C00007207F5B473A3F5AC731A6007F5B4738A
:10513C00A3F5AC731B68194BD3F88C30174A43F0AA
:10514C000403C2F88C30154BD3F88C3003F00402F6
:10515C0007F5B473A3F5AE731A6007F5B473A3F532
:10516C00AE731B68C023C7F854310223C7F85831FB
:10517C000023C7F85C310023C7F860310723C7F858
:10518C00643107F5AA731946094802F09FF900BF6C
:10519C0007F5B477BD4680BD00380140000C0244D1
:1051AC00000402420044004000000242004800405B
:1051BC00000802420064004080B5C6B000AF07F59D
:1051CC008C73A3F58A73186007F58C73A3F584733D
:1051DC0018464FF484731A4600210CF040F807F57A
:1051EC008C73A3F58A731B681B681E4A934233D1D8
:1051FC0007F58C73A3F584714FF000024FF0100388
:10520C00C1E9002307F58C73A3F584733022C3F82E
:10521C00002107F11003184603F074FB0346002B22
:10522C0001D0FFF7D1FA02F0E3FB0F4BD3F8A43017
:10523C000D4A43F08073C2F8A4300B4BD3F8A43062
:10524C0003F0807207F58C73A3F586731A6007F56B
:10525C008C73A3F586731B6800BF07F58C77BD466E
:10526C0080BD00BF00600140000C024480B400AF60
:10527C0000BFFDE780B400AF00BFFDE780B400AF16
:10528C0000BFFDE780B400AF00BFFDE780B400AF06
:10529C0000BFFDE780B400AF00BFBD465DF8047BE6
:1052AC00704780B400AF00BFBD465DF8047B70470B
:1052BC0080B400AF00BFBD465DF8047B704780B57D
:1052CC0000AF00F065F900BF80BD000080B500AFF5
:1052DC00024809F00BFE00BF80BD00BFC8030020D0
:1052EC0080B500AF024809F001FE00BF80BD00BFD1
:1052FC005C04002080B483B000AF374BD3F8883007
:10530C00354A43F47003C2F88830344B1B6803F001
:10531C001803324A43F001031360304B0022DA6168
:10532C002E4B00221A622D4B1A682C492C4B134021
:10533C000B602A4B00229A62284B0022DA62274B20
:10534C0000221A63254B274A5A63244B00229A6386
:10535C00224B244ADA63214B00221A641F4B214A48
:10536C005A641E4B00229A641C4B1B681B4A23F484
:10537C0080231360194B00221A65174B4FF0006203
:10538C009A60194B9B6903F060437B607B68B3F1B7
:10539C00604F03D07B68B3F1404F17D1124BDB69E0
:1053AC0003F00103002B05D00F4B104ADA600E4BB3
:1053BC000F4ADA600C4BDB690B4A43F00203D361F2
:1053CC00094BDB69084A43F00103D36100BF0C377A
:1053DC00BD465DF8047B704700ED00E0000C024414
:1053EC00FBEAE2EA80020101002002403B2A190894
:1053FC007F6E5D4CDFF83CD00F4880F30A88FFF7D6
:10540C0079FF0E480E490F4A002302E0D458C450CD
:10541C000433C4188C42F9D30B4A0C4C002301E022
:10542C0013600432A242FBD30BF028FFFEF70CF8FA
:10543C00FEE7000000000A2000FC0920000000200C
:10544C0060000020301E010860000020A00A00202F
:10545C00FEE7000080B500AF032001F0F0F803F088
:10546C00C7F802460C4B1B6A03F00F030B49CB5CCD
:10547C0022FA03F30A4A1360042001F035F90F20D5
:10548C0000F010F80346002B01D0012302E0FFF7D7
:10549C00A1F90023184680BD000C0244901D0108A0
:1054AC000400002080B584B000AF78600023FB605E
:1054BC00334B1B78002B01D101235CE0314B1B6873
:1054CC0003F00403042B0CD12F4B1A682C4B1B78C4
:1054DC0019464FF47A73B3FBF1F3B2FBF3F3FB60B1
:1054EC0037E001F059F9B860BB68022B23D0BB68D8
:1054FC00022B2DD8BB68002B03D0BB68012B0DD021
:10550C0026E0214B1A681E4B1B7819464FF4FA53B0
:10551C00B3FBF1F3B2FBF3F3FB601AE0184B1B780F
:10552C001A464FF47A73B3FBF2F34FF4FA42B2FB20
:10553C00F3F3FB600DE0124B1B781A464FF47A73B1
:10554C00B3FBF2F34FF40042B2FBF3F3FB6000E069
:10555C0000BFF86801F0A6F80346002B01D0012328
:10556C0009E0002279684FF0FF3001F073F8074A28
:10557C007B681360002318461037BD4680BD00BF02
:10558C000C00002010E000E00400002008000020C7
:10559C0080B400AF064B1B781A46064B1B681344AD
:1055AC00044A136000BFBD465DF8047B704700BF22
:1055BC000C0000206409002080B400AF034B1B6872
:1055CC001846BD465DF8047B704700BF6409002097
:1055DC0080B584B000AF7860FFF7EEFFB8607B68F1
:1055EC00FB60FB68B3F1FF3F05D00A4B1B781A46F2
:1055FC00FB681344FB6000BFFFF7DEFF0246BB688D
:10560C00D31AFA689A42F7D800BF00BF1037BD46CC
:10561C0080BD00BF0C00002080B483B000AF786068
:10562C0039607B689B6823F47C123B681A437B6867
:10563C009A6000BF0C37BD465DF8047B704780B4A0
:10564C0083B000AF786039607B689B6823F0E072B0
:10565C003B681A437B689A6000BF0C37BD465DF807
:10566C00047B704780B483B000AF78607B689B6824
:10567C0003F0E07318460C37BD465DF8047B7047A9
:10568C0080B483B000AF7860064BD3F8C830054ABD
:10569C0043F00103C2F8C83000BF0C37BD465DF8BB
:1056AC00047B70470081024280B483B000AF786005
:1056BC007B68D3F8C83043F001027B68C3F8C8207C
:1056CC0000BF0C37BD465DF8047B704780B487B0D3
:1056DC0000AFF860B9607A603B60FB6860331A46D3
:1056EC00BB689B0013447B617B691A68084B1340B1
:1056FC007A6802F0F8413A680A43134343F00042D7
:10570C007B691A6000BF1C37BD465DF8047B70478F
:10571C0000F0FF0380B485B000AF786039607B681F
:10572C0060331A463B689B001344FB60FB681B68A4
:10573C0003F0F84318461437BD465DF8047B7047F8
:10574C0080B487B000AFF860B9607A60FB686033F2
:10575C001A46BB689B0013447B617B691B6823F072
:10576C0000427B681A437B691A6000BF1C37BD4638
:10577C005DF8047B704780B487B000AFF860B96007
:10578C007A60FB6860331A46BB689B0013447B61EC
:10579C007B691B6823F080727B681A437B691A60F3
:1057AC0000BF1C37BD465DF8047B704780B487B0E2
:1057BC0000AFF860B9607A60FB6860331A46BB686A
:1057CC009B0013447B617B691B6823F000727B6830
:1057DC001A437B691A6000BF1C37BD465DF8047B19
:1057EC00704780B483B000AF786039607B685B69C8
:1057FC0023F000423B681A437B685A6100BF0C37A8
:10580C00BD465DF8047B704780B487B000AFF8608C
:10581C00B9607A60FB6830331A46BB681B0A9B0080
:10582C0003F00C0313447B617B691A68BB6803F0BB
:10583C001F031F2101FA03F3DB431A407B689B0E05
:10584C0003F01F01BB6803F01F0301FA03F31A43B3
:10585C007B691A6000BF1C37BD465DF8047B70473E
:10586C0080B487B000AFF860B9607A60FB6814331D
:10587C001A46BB685B0E9B0003F0040313447B6168
:10588C007B691A68BB681B0D03F01F03072101FA23
:10589C0003F3DB431A40BB681B0D03F01F0379684D
:1058AC0001FA03F31A437B691A6000BF1C37BD462B
:1058BC005DF8047B7047000080B485B000AFF860E1
:1058CC00B9607A60FB68D3F8B020BB68C3F31303EC
:1058DC00DB431A407B6803F018030849D940BB68C6
:1058EC000B40C3F313031A43FB68C3F8B02000BF8B
:1058FC001437BD465DF8047B704700BFFFFF0F00F7
:10590C0080B483B000AF78607B689B6823F0204341
:10591C0023F03F037A68936000BF0C37BD465DF8F7
:10592C00047B704780B483B000AF78607B689B6861
:10593C0003F00053B3F1005F01D1012300E0002319
:10594C0018460C37BD465DF8047B704780B483B0B5
:10595C0000AF78607B689B6823F0104323F03F0313
:10596C0043F080527B689A6000BF0C37BD465DF8EF
:10597C00047B704780B483B000AF78607B689B6811
:10598C0003F08053B3F1805F01D1012300E00023C9
:10599C0018460C37BD465DF8047B704780B483B065
:1059AC0000AF78607B689B6803F00103012B01D189
:1059BC00012300E0002318460C37BD465DF8047B3C
:1059CC00704780B483B000AF78607B689B6803F04D
:1059DC000403042B01D1012300E0002318460C37EB
:1059EC00BD465DF8047B704780B483B000AF78602F
:1059FC007B689B6803F00803082B01D1012300E0AE
:105A0C00002318460C37BD465DF8047B7047000038
:105A1C0090B589B000AF78600023FB770023FB6062
:105A2C007B68002B01D1012336E17B681B69002BBD
:105A3C007B689B6D002B09D17868FEF7D3FE7B68E1
:105A4C000022DA657B68002283F854207B681B688F
:105A5C001846FFF767FF0346002B04D07B681B68D2
:105A6C001846FFF74DFF7B681B681846FFF782FF4F
:105A7C000346002B15D17B681B681846FFF766FFA1
:105A8C00874B1B689B09874AA2FB03239B090133A5
:105A9C005B00FB6002E0FB68013BFB60FB68002BDA
:105AAC00F9D17B681B681846FFF764FF0346002B8F
:105ABC000DD17B689B6D43F010027B689A657B6807
:105ACC00DB6D43F001027B68DA650123FB777B68B1
